:03000000020152A8
:0C015200787FE4F6D8FD75811E0201994B
:0403F7003134373234
:06000300011B00011C00BE
:0D03E4007508FF71FB71C1C2B731DE80FCEE
:1001DE00E4F509F50AE51B602E24FE604A047063FF
:1001EE00751A02E4F51DF51EC2B3D2B5D2B4719FD5
:1001FE0071F1EF70FBE51AB43003751B02E51A645A
:10020E00317040F51B803CE4F51AF51D751E01D2C8
:10021E00B3C2B5D2B4719F71F1EF70FBE51A6431C0
:10022E007021751B01801CE4F51AF51DF51ED2B365
:10023E00D2B5C2B4719F71F1EF70FBE51AB4310300
:0C024E00E4F51BE51C651B6003851B1C10
:01025A002281
:0B039F007FFF7149EFF46019BF2A16C0
:1003AA00E4F50BF50CFB7A0079147176E4F518FB89
:0603BA007A00791451BE27
:0103C000221A
:0602BE008B0D8A0E890F72
:1002C40078107C007D007BFF7A0379F77E007F0441
:1002D40011DDE4FFAB0DAA0EA90F8F8275830031E7
:1002E40003FE74102FF8E66E6004E4FF80070FEF3E
:0F02F400C3940440DFBF0404751A3122751A3019
:0103030022D7
:1003D4003134372A323538303336392300000000BF
:0403FB0075902B22AC
:0603F100E590642BFF22E1
:10025B00859010E51024DD601A24FA6011146009F2
:10026B00241F7014E4F5108012751001800D7510A9
:10027B0002800875100380037510FF759054AF90C2
:10028B0075902BEF24EC600C24C4600C240C700CC8
:10029B00E4FF800A7F0180067F0280027FFFE5106A
:1002AB00F46003BFFF047FFF8008EF25E025E02506
:0202BB0010FF32
:0102BD00221E
:1003490071F1EF70037FFF2271F1EF70FB71F1EF33
:1003590060FBE4FFFE0FBF00010EBE0EF8BF10F5F3
:0C036900515BEFF46006EF9003D493FFAB
:010375002265
:060376008B0D8A0E890FB9
:10037C00E4FDEDC39404501A7149AB0DAA0EA90FFC
:10038C008D82758300EF3130BF2A04E4FD80E30DCC
:02039C0080E0FF
:01039E00223C
:1003C1005389F0438901758AFE758CB7D28CD2A905
:0303D100D2AF2286
:02000B0061048E
:10030400C0E0C0D020B71AD2B7E51E6401451D7005
:1003140008758A66758CFC8010758ACC758CF8809B
:1003240008758AFE758CB7C2B720B714E51BB401F3
:100334000F20B10320B009751B02D2B3D2B5C2B4E9
:05034400D0D0D0E03232
:10015E000203E4E493A3F8E493A34003F68001F2D0
:10016E0008DFF48029E493A3F85407240CC8C333A2
:10017E00C4540F4420C8834004F456800146F6DF71
:10018E00E4800B0102040810204080900003E47EFE
:10019E00019360BCA3FF543F30E509541FFEE49366
:1001AE00A360010ECF54C025E060A840B8E493A32D
:1001BE00FAE493A3F8E493A3C8C582C8CAC583CA58
:1001CE00F0A3C8C582C8CAC583CADFE9DEE780BE10
:0100090000F6
:10000D00E709F608DFFA8046E709F208DFFA803ED5
:10001D0088828C83E709F0A3DFFA8032E309F608C2
:10002D00DFFA8078E309F208DFFA807088828C832A
:10003D00E309F0A3DFFA806489828A83E0A3F608DE
:10004D00DFFA805889828A83E0A3F208DFFA804CB8
:10005D0080D280FA80C680D4806980F2803380108F
:10006D0080A680EA809A80A880DA80E280CA8033F8
:10007D0089828A83ECFAE493A3C8C582C8CCC58370
:10008D00CCF0A3C8C582C8CCC583CCDFE9DEE78040
:10009D000D89828A83E493A3F608DFF9ECFAA9F0BF
:1000AD00EDFB2289828A83ECFAE0A3C8C582C8CC15
:1000BD00C583CCF0A3C8C582C8CCC583CCDFEADE2E
:1000CD00E880DB89828A83E493A3F208DFF980CC90
:1000DD0088F0EF60010E4E60C388F0ED2402B40489
:1000ED000050B9F582EB2402B4040050AF23234530
:0600FD00822390005D73F8
:10010300BB010CE58229F582E5833AF583E02250B1
:1001130006E92582F8E622BBFE06E92582F8E222FB
:0D012300E58229F582E5833AF583E4932215
:10013000F8BB010DE58229F582E5833AF583E8F005
:10014000225006E92582C8F622BBFE05E92582C8B1
:02015000F22299
:00000001FF
